:020000040000fa
:080000000002040000000000f2
:020000040000fa
:100400008f3f22000e7f22000e01880000000000b6
:100410000c000700c0cc28000100200011000700dc
:10042000000020000000e000020032000000020096
:1004300000000000448c0200000000000040da00d0
:100440000000fe004440a90040b120000000e00090
:100450000300320000002000a00188004440a800f2
:100460000000060091018800800078000000eb0089
:1004700015003700e280400032a0b4009101ba00bc
:10048000e280400032a0b4009102ba00e280400055
:1004900032a0b4000002eb00472bde00f507b200eb
:1004a000602ce10004003a000059eb008301e900f0
:1004b000fdff3e00040037006128e100010032002a
:1004c0000082eb00040007001101ba000200e00006
:1004d000e8ff3a00000006003159ba008301e90044
:1004e0000c0032002159ba008301e90008003200f3
:1004f0000400e00003003a00e280400032a0b400b3
:10050000f5ff370011d9ba008301e900faff3a007c
:100510008100e800e180400032a0b4000000060045
:1005200000000000000000000000000000000000cb
:1005300000000000000000000000000000000000bb
:1005400000000000000000000000000000000000ab
:10055000000000000000000000000000000000009b
:10056000000000000000000000000000000000008b
:10057000000000000000000000000000000000007b
:10058000000000000000000000000000000000006b
:10059000000000000000000000000000000000005b
:1005a000000000000000000000000000000000004b
:1005b000000000000000000000000000000000003b
:1005c00000000000000000000040da000000fe0013
:1005d000889fbe0080047800a0df80000000e0005b
:1005e00003003a00470007000000e0000a00350061
:1005f000a0df80000900e00002003a00000478005b
:100600000600370000047800090040003d000700a4
:100610000000e00001003d000084eb0008007800cd
:100620004f04be00000006000a00fa0080017800b6
:10063000e20f500028003e00b0df8000e10f5000c4
:1006400008003200802320000000e0000500320096
:100650000423200025232000462320008001780069
:10066000040037000422200025222000462220001a
:1006700083222000144090000004e00004003500b4
:100680008009eb00144090000074a0001042980014
:10069000154090000028a30003003a001540900088
:1006a0000024a000904298008001eb000700370072
:1006b000154090000008a300fdff320063c07800e1
:1006c0000000fb00000b78008301e800828f5100de
:1006d000f7ff3a000800370030002000b0bf9f004d
:1006e000c3bf9f00d1bf9f00e2bf9f006a80570039
:1006f00000c0da006fb99700020078000080fa00ad
:1007000000000600800078000000e00004003a00cd
:1007100080bf2100a0df88000101780006003700bb
:100720000081eb00803f2200808f500002003e00dd
:10073000a1df88000001eb00020078000000060045
:100740002800fa00889fbe008a9fbe008c9fbe00d2
:1007500003866b00400307000028a30064003a00f2
:100760000128a30067003a000008a30062003a00d5
:100770000108a30065003a001e009000be0890002a
:1007800081064000ed3fb100f4805700ee0190007b
:10079000111ab8008e099000311bb8009e09900014
:1007a000311cb800511db800f48557004600070001
:1007b000fe0190003a0007008b85e8003e0007002c
:1007c0008e09900040000700ee0190003400070001
:1007d0008b85e800380007008e0990004000070074
:1007e0009e0990001b18b800890440000a85480043
:1007f000fe019000340007008b85e80038000700f8
:10080000ee019000300007008e0990001b18b80020
:10081000890440000a8548000a98a30008003a00ad
:100820000402420085824a0006034b0087834b0086
:1008300008044c0089844c000a054d008d06e9002f
:1008400084827200850273004c3add0085027200da
:100850000100320015002000443ade001400b2000e
:100860004538de00cb45dd000b007000c540de00e2
:10087000cb4ddd008b8070004549de00cb55dd009f
:100880000b017100c551de000d0378000b0307005a
:1008900003f0a1000cf0a70003f0a0000203370052
:1008a0001b18b8008502400006834800e0834b0017
:1008b00060044c00070037001b18b8000603400016
:1008c00087834800faff37001b18b80087034000f1
:1008d00008844800e0844c0060054d0000000600dc
:1008e0001b18b8000804400089844800faff37004c
:1008f0000108a300e9023a005800be005801be00fa
:10090000e3ff37000008a300e4023a00090478007e
:10091000f9ff370081037800140307000001be00cf
:100920006000b8000478a30013003a006220e100e0
:1009300015003e000d0039008301d1000281d30073
:100940008180d3008301d1000281d3008180d30054
:100950008301d1000281d3008180d3000538b0002b
:10096000c42add00f300b2008381720007f0a70003
:1009700003f0a00000000600f3ff2700f2ff2f00a5
:100980006110b900fbff370003ff2700f7ff3700b6
:100990008f1fd1000a0307008f87e9000000e000e5
:1009a00000000600801feb00050307008f87e900a9
:1009b0000000e000000006001400fa00889fbe005e
:1009c0008a9fbe008c9fbe000005be000206be00ce
:1009d000680047000c90be000a90be00210307008b
:1009e0006400e1001a00320016003e006100e100e0
:1009f0001a0032006e049000fe0490000e0b90006e
:100a00009e0b90006011b8009e0590000b38b1005d
:100a1000d501200082817100610164008703d1004b
:100a20000683d3008984d3000884d3008502e900bb
:100a3000f8ff3a00320307000df0a70001f0a00014
:100a400099023700f1ff2700f0ff2f0096023700d0
:100a500001f8270000002000f7ff37006000b80011
:100a6000f5ff37004c030700050978000000060079
:100a7000809feb00d20207008f87e9000000e000b2
:100a8000000006002800fa00889fbe008a9fbe0072
:100a90008c9fbe0003866b006f0207006400e100bc
:100aa000440032006408e1004a0032006100e100c5
:100ab000460032006108e10049003200ec064700c0
:100ac0006000b8003d02be003d03be00f486570042
:100ad0006011b8003d04be003d05be007d0320004e
:100ae0000b0037000000a0008d06e9001300320063
:100af0000402420085824a0006034b0087834b00b4
:100b000000004000818048000201490083814900c3
:100b10000802520089825a000a035b008b835b0043
:100b2000f0ff3b000802420089824a000a034b00a2
:100b30008b834b008d06e900edff3a008482720042
:100b400086827200f707b2008782720001003200cd
:100b5000150020001e0490003e0b90000603540078
:100b6000e63fb0000368a300070032000000a700c2
:100b70000500a0008301d1000281d3008180d30051
:100b80000080d3000603e8008301d1000281d30076
:100b90008180d3000080d3000002eb000482d200e9
:100ba0004602070003f0a1000cf0a70003f0a0002c
:100bb0003d023700640247006408e100370232005a
:100bc0003400be003401be00f6ff37006108e100ca
:100bd000320232006011b8006000b800f1ff370047
:100be00003ff270002002000fbff37001400fa007b
:100bf000889fbe008a9fbe008c9fbe000004be007e
:100c00000205be00680047000a90be000890be00c2
:100c1000940207000070a7000bf0a1000bf8a300de
:100c200016003a009e02900030432000808252005d
:100c3000b0fe2f000028e1000d003c00b0fc2f00aa
:100c40000028e1000d0034001e0990008e0890007d
:100c50007e0090000501b0000201d1008180d30028
:100c60000080d3008502e800fbff3a000e02370047
:100c700001002800000020000b0237006000b800cf
:100c8000090237004f89de0082017800bb0137007e
:100c90002800fa00889fbe008a9fbe008c9fbe007d
:100ca00007067800878669000c003b000304780083
:100cb0008704780008f0a10009f0a100840f50001b
:100cc000858f5800860f5900890f5c0003003300a0
:100cd0000cf0a20001003a000cf0a100de010700b8
:100ce0006400e1005f003200780147006408e10021
:100cf000610032006c014700748557003200be006d
:100d00001201be003a04be001a05be001e03900088
:100d1000be0a90008503530006003d000004fd005c
:100d20008104fd000205fd008305fd008703ea0044
:100d3000050378000df8a3000400320060041400dd
:100d4000e0841c0060051d00e0851d006022b800e5
:100d50007d0320000d38e1008006eb000b00390018
:100d60004433dd00f300b200830173003900370023
:100d7000848272000d027800e10664008b85d10048
:100d80000a85d3008984d3000884d3008703e9004f
:100d9000f7ff3b0008004000898048000a01490035
:100da0008b81490004003b0060001000e0801800c7
:100db00060011900e08119000358a3000900320006
:100dc0008d82720084827200610260008301d10012
:100dd0000281d3008180d3000080d3000603e800a5
:100de0001b0037000348a30017003a000600e0008c
:100df000170034000603e9000d00a30000004800be
:100e00008180480002014900838149000348a30012
:100e10000f003a000600e000090034000603e90074
:100e200000004000818048000201490083814900a0
:100e300001003a000003eb000348a300f5ff320075
:100e40006022b8000200370084827200618266006e
:100e50009a01070003f0a1000cf0a70003f0a00026
:100e600091013700640147006408e10002003a0084
:100e70000df8a30089013a003200be001201be0045
:100e80008901370007f0a20081ff3700881f780032
:100e9000000478005001be004000be000400400085
:100ea000858048000601490087814900009cbe00fa
:100eb0000294be000400e1000588e1000690e10014
:100ec0000798e10002003100680044001008e800c3
:100ed0004f04780000000600f4874700889fbe009a
:100ee0008a9fbe008c9fbe008e1f78000205be0048
:100ef0000004be00d4b79f00e5b79f00f6b79f007f
:100f000087bf9f000000eb00c0b79f00b0b79f00f5
:100f1000a0b79f0090b79f0080b79f000d042000ee
:100f2000bfb097004fb09700000140000000e00004
:100f30000f003d004f08de0000007100c0b79f00a9
:100f40009e00070001003d0012002000a1000700e4
:100f500001003d0012002000a6000700b1000700bc
:100f6000b60007000f004000c8ff0700220037004e
:100f70004f08de0000067100ccb79f008f0007000d
:100f800001003d00120020009200070001003d001a
:100f90001200200097000700a20007000fb2970080
:100fa0009fb297002fb39700bfb39700a900070027
:100fb0000000520081805a0002015b0083815b00c7
:100fc00080b79f0091b79f00a2b79f00b3b79f0063
:100fd0000007eb009f0007000020e10001a8e100ee
:100fe00002b0e10003b8e100010031001e00200062
:100ff0000e005600c0b79f004fb297000400e000fb
:101000000700350010002000010020006011b8002a
:1010100008047000898470000a0571008b857100d6
:101020008d06e900beff3a000400e00003003d0029
:10103000820007000f00400094ff07004fa89700b0
:101040000000e00004003a000fb497009fb497003e
:101050002fb59700bfb59700940007004f077800a1
:101060004f06be004f05be004f04be004f01b10049
:1010700000000600881f780018002000881f7800f4
:1010800095ff07008f87e9004f04780000000600f5
:10109000801feb0090ff07008f87e900000006002b
:1010a000889fbe008a9fbe008c1f78006e000700dc
:1010b00007003d0073000700e00f5b00e08f5b005e
:1010c00007003d00320007000006eb000400370077
:1010d0003400070002003d002a0007001c00200029
:1010e00072000700e3ff07000203be000002be001b
:1010f0000c00e00001003200220007000400be00e6
:101100000601be004f0678004f05be004f04be002a
:1011100000000600889fbe008a9fbe008c1f7800da
:101120005100070005003d0056000700e00f5b007e
:10113000e08f5b0006003d00040037001900070047
:1011400003003d006000b8006011b8001000070007
:1011500056000700ceff07000203be000002be00db
:101160000c00e00001003200060007000400be0091
:101170000601be004f0678004f05be004f04be00ba
:10118000000006006000b8006011b80000003700e1
:1011900004025000858258000603590087835900d5
:1011a000000006000006eb00e00f5200e08f5a003e
:1011b000e00f5b00e08f5b00000006000180400054
:1011c00090b79f000001eb008fb097000100e00096
:1011d000000006000200700090b79f0001804000f0
:1011e00080b79f000001eb00ffa897000100e0001e
:1011f000000006000200700080b79f0001804000e0
:101200006faa9700cf20de0001007000f0af9f00b2
:1012100004024200250007004f18de0000027200a1
:1012200000000600e4af9f000804440089844c00dd
:101230000a054d008b854d00000006003fb2970067
:10124000cfb297005fb39700efb3970000fe2f0077
:10125000000006003fb09700cfb097005fb1970045
:10126000efb19700000006000205be000004be00ba
:10127000e00f5000e08f5800e00f5900e08f590058
:10128000000006006000b8006011b80008045000bb
:10129000898458000a0559008b8559001c002000dc
:1012a000e00f5200e08f5a00000006000800be0068
:1012b0000a01be00000006001400fa00889fbe006c
:1012c0008a9fbe008c9fbe000004be000205be00c7
:1012d000680047000a90be000890be00e1000700c9
:1012e0000070a7000bf0a1000bf8a30020003a004b
:1012f0009e0990000e099000fe0090006e00900084
:101300009e02900034432000848252006600320026
:101310000a003c00b4fc2f000428e1001400340053
:101320008301d1000281d3008180d3000080d300eb
:101330008502e800faff3a005b003700b4002000a5
:101340000428e10007003c000000400081804800c4
:1013500002014900838149008502e900faff3a0051
:101360005100370003002800020020000100370070
:101370006011b8006000b8004b003700889fbe00c5
:10138000830478000300e0002c00350003003c00db
:1013900000827000040271002600320036432000f3
:1013a000c50020008383cf000a0039000541b10049
:1013b0008283cf00070039000541b1008183cf004f
:1013c000040039000541b1008083cf0001003900dd
:1013d0000541b10085c353006022b80012003200fd
:1013e0000a003b0084827200610260008301d10028
:1013f0000281d3008180d3000080d3000603e8007f
:101400008743e800f7ff3a0007003700000040007c
:101410008180480002014900838149000603e900f8
:101420008743e900f9ff3a002400070009f0a7000c
:1014300003f0a0004f04be00000006006000100092
:10144000e080180060011900e0811900d3ff3b0023
:10145000033e2c00f7ff3700680447000294be00eb
:101460000094be00fc0447008694be008494be0035
:10147000090078007b000700080078007900070069
:1014800099007800814f70000b003b000800be00ff
:10149000ce0007004f00b10003003700f3ff270024
:1014a000f2ff2f006110b9004f06be004f05be00cd
:1014b0004f04be000080fa00000006001800200063
:1014c00057002000080453000d003d0006002000d6
:1014d00097fc2f000740e1001e0034008482720058
:1014e000610260008301d1000281d3008180d300ba
:1014f0000080d3000804e800f8ff3a00470020000d
:101500006104600005047400040464000d003200ee
:1015100061004000e080480060014900e08149002e
:1015200003b8a500070032000603e8006538e100b3
:1015300004003a008301d1000281d3008180d300ee
:101540000080d300f87f20000830e1000300350060
:10155000080378006000b8006011b8004433dd0073
:10156000f300b2008301730000000600c70ade002a
:10157000f107b200f50fb20008003200e1cf4200df
:10158000020032000170a00024000500810f7000ed
:10159000010032000408050044000500810f7000be
:1015a00002003a00140005008502e9000000400036
:1015b00081c04800fcff3b000170a0002400050032
:1015c000889fbe008a9fbe008c9fbe000404be00a0
:1015d0000605be00809fbe00829fbe0089000700f6
:1015e000040678000800be000a01be00850007005e
:1015f000840678004f03be004f02be008d4f760078
:101600007fb0970013003300f0ff2f008b8f6b002b
:1016100006003b000d0666000c00a7000a0037001c
:1016200007f0a600100020000a003700880f5200c3
:10163000898f5a008a0f5b008b8f5b000300390093
:101640001000200001003e000000200007f0a7006d
:101650000000ea004f06be004f05be004f04be006a
:1016600000000600800078005002be005003be005b
:101670004439de00f700b200f37f2000030161006f
:10168000090032000218e10016003a0085017200dc
:1016900083017300838173000008200015003a0065
:1016a00040002000130037008501720083017300a1
:1016b0008381730005003a0004a8be0006a8be009e
:1016c000100020000b0037000201e9000402420074
:1016d00085824a0006034b0087834b000748a3001e
:1016e000f9ff32000740a00004a8be0006a8be0013
:1016f0002000200080009800920098000000060062
:1017000081002000618055000b003d000b0020008f
:1017100061fe2f000100e1001d0034008281710094
:10172000610164008904d1000884d3000000e8004e
:10173000faff3a00710020006100640003007000ad
:10174000020060000900320061044400e0844c00a3
:101750000988a500050032008b05e8006808e10053
:1017600002003a008904d1000884d300f20f20005f
:101770000258e10005003d00c75ddd00f907b20039
:101780008980750008007800000006000bf827002b
:101790008b007800000005000003be0073ff070007
:1017a0006220e100020032000600be0005000500d4
:1017b000e507b100f107b20004f023008480700057
:1017c00007f0a70001f0a00024000500e48240001b
:1017d0001078a30007003200640240001178a300d3
:1017e0003400be001401be00040032000330a70024
:1017f000000006003500be001501be000330a00049
:101800000000060005ff2700058261000700320086
:101810000428e10001003200240005000600070052
:1018200001003a004400050004080500020007001a
:10183000f9ff3a00140005006f8261008102700018
:1018400085027100850272000000060080017800a8
:1018500090c1bf00660060000081eb00e60f500001
:1018600003003a00b30c8800a10c8800120020008d
:1018700002007800000006000621ef0061088800e1
:101880008008880000000600041920001442780037
:1018900085cfb300054262000002fd0090e1b70071
:1018a0000002fd00a20c8800b30c8800800c8800a8
:1018b000910c8800000006000001780000c2b3000f
:1018c000010037000201e8009240780080cf50000c
:1018d000fcff3200e9cf5000faff3200d0c2b30063
:1018e00080cf500003003a000201e80014c0b300aa
:1018f000050037000042eb00b0c2b30080cf5000bb
:1019000001003a000201e8008000eb0005fd2f0015
:10191000040037006a08b9000080410085004000db
:101920000201e8009201fb0005804100e90f500030
:10193000f8ff36000404e000010032008100ea00f4
:101940000100780000000600889fbe008a9fbe004c
:101950008c9fbe0000017800c1ba21001100e00098
:101960000b003a0000bb210060dd880040dd8800ec
:1019700081dd880051dd8800214090000004a00036
:10198000a0409800614090000004a000e040980052
:10199000e7004100c208de00c20cdd0054dd80001b
:1019a0008dbf2100803f22000d0550002200200045
:1019b000811f7800110009000205d8000006780098
:1019c000cf007800c308dd00e48540008001eb0013
:1019d00086bf2100c5ba210001003700010278004e
:1019e000244090000008a300020032000a003700e3
:1019f000110a780094007800214090000008a300ac
:101a0000fbff320009014200828f500002003900c2
:101a1000840f51004600310094007800848f5000fc
:101a2000eeff3e00868f500002003900858f500087
:101a3000eaff390040dd8000800f52004f003a007d
:101a4000858f50004d003a008301e800e18f51007e
:101a5000e2ff36008c8f5400040036008a8f540059
:101a6000020031000b04780012003700614ab80010
:101a70006151b900b0ff2f000100200002005000aa
:101a800083805800800f5200818f5a000200350079
:101a900009047800070037000d805400b23f22008f
:101aa00002004000110009000a80d8000a80b90035
:101ab0000004780008007800c5fa0700800178006b
:101ac000e10f40002d00320040dd80000308780067
:101ad00042dd800064004100a2409000808f5100f0
:101ae000020032000104a000010037000104a1003f
:101af000214198000880410064005000800978006e
:101b000040dd8800c2ba21000208780041dd800073
:101b1000214090000004a000a040980023409000c5
:101b20000004a100a041980002027800a7ff37003e
:101b300052dd8800828f5000090036009200780044
:101b400060ba2100a24190000348780021dd88009e
:101b5000140978008040eb0050dd8000214098009f
:101b600050dd8000000a7800244090000004a000ae
:101b70002042980064004200010037000000eb00a2
:101b80004f06be004f05be004f04be000000060019
:101b90006400500050dd8800a04090000104a100c6
:101ba0002140980000000600889fbe008a9fbe006a
:101bb00000057800e401500013001000c285de002b
:101bc000234090000008a3000400320053dd880089
:101bd000234090000004a100a0419800010078007b
:101be00059ff0700000478000000e00017003200f1
:101bf0008a0f50001500320060b8970008005000ae
:101c0000c284de00898f5500010036008905780006
:101c10004259dd008a007800080078002b00070098
:101c20008a0f5400090031004248dd0000004400e2
:101c30008a0f5000050036000a00500000004400e2
:101c400022dd800033dd80000288be0008007800bd
:101c50004f05be004f04be00000006008001eb00ef
:101c600002003700817178008301e800828f510003
:101c7000fcff3a00000006000c00fa00889fbe003e
:101c800000047800f0ff2700d0bf9f008004eb0025
:101c900099bf9f0088bf9f00a8bf9f00200c200015
:101ca000b0bf9f0070805700b80007000fb89700c2
:101cb000094878000fb89700080450000800780021
:101cc0004f04be000080fa00000006008001eb0017
:101cd0000200370061f079008301e800828f510033
:101ce000fcff3a0000000600889fbe008a9fbe00ed
:101cf00080407800d0c6b30080cf50002900360065
:101d00000185fb0042062000110009000285d80071
:101d100000017800010478004311dd00ab7321005d
:101d20000b0141006022b8000600200007fe2300de
:101d30000288900092889000b289900022899000d9
:101d40007ffa0700a9002000809fbe001100090053
:101d50000984d800000478004f00be004344dd0031
:101d60000b04440048229000d82290006823900081
:101d7000f823900072fa0700801f780001027800b3
:101d8000110009000985d8000102fd004f0078000c
:101d90004322dd000b0242005403be004402be0099
:101da0001f0037000180fb00a9732100eacf50001b
:101db00014003600a2002000110009000280d800a3
:101dc00000017800010478004311dd0009014100a1
:101dd0006022b8000600200007fe23004220900089
:101de000d2209000f22190006221900054fa070066
:101df0004344dd00090444003802be002803be004d
:101e0000070037004300dd00090040006022b800f1
:101e10000600200007fe23005001be004000be0067
:101e200047fa07004f05be004f04be000000060041
:101e3000889fbe008a1f7800804078000004e00080
:101e400021003d008040ea00d0c6b30080cf5000a2
:101e5000090034008104fb00420620001100090043
:101e60008204d80000017800010078004311dd00f1
:101e7000aa7321001f0037000100fb00a37321009b
:101e800039003700a2002000110009000200d8002c
:101e900000017800010078004311dd0003014100da
:101ea0004300dd00030040003002be002003be00fe
:101eb00042209000d2209000f221900062219000f8
:101ec0001ffa07002e003700d0c6b30080cf5000a5
:101ed000230034008104fb004206200011000900a9
:101ee0008204d80000017800010078004311dd0071
:101ef000aa7e21000a014100a8002000110009006b
:101f00000800d8004300dd000a0040004022900095
:101f1000d022900060239000f0239000028890006f
:101f200092889000b28990002289900004fa0700fc
:101f3000801f780001027800110009008804d80091
:101f40000102fd004f0078000402fb004322dd0087
:101f50000a0242005403be004402be00d8ff37000c
:101f60000100fb00a37e2100eacf5000c5ff3c002a
:101f70004300dd00030040005001be004000be00f1
:101f80004f0578004f04be0000000600ef04b000cb
:101f9000889fbe008a9fbe008c9fbe008e1f780067
:101fa0006022b8006033b800e4a79f00f5a79f0047
:101fb00086af9f0097af9f00a0af9f00b1af9f007b
:101fc000c2af9f008002eb00a5a79f00d00737009b
:101fd0008001eb0050c2b30080cf500009003200f6
:101fe0000100fb00afa89700d6070700e10f4000f3
:101ff000c70732002fa397000603e800a6a79f009b
:10200000c3073700bfab970097407800b0c2b3005a
:1020100080cf50001900320007003c006b40500098
:1020200080cf5000100032006340400080cf50004d
:1020300021003a0016003700d0c2b30080cf500014
:10204000040032006340400080cf50001a003a0084
:10205000140037000330a0003fac97000804e800ec
:10206000b8af9f00e7ff37000300a000bfac9700a8
:102070008904e800b9af9f00e2ff37000310a00019
:102080003fad97000a05e800baaf9f00ddff3700bb
:1020900003b0a000bfad97008b05e800bbaf9f0069
:1020a000d8ff37000320a0003fa897000000e800f9
:1020b000b0af9f00d3ff37000318a3000100320028
:1020c0000300a1000338a300010032000320a10097
:1020d0000100fb0002fd2f0002004000e90f50004c
:1020e00010003e008000eb00e1979f0002027800a4
:1020f0006f9197006a10b900bfaa97001501fb0005
:102100000001410004014100e2979f005500fb00df
:10211000b5af9f0004004000e90f50000d003e00e5
:10212000f3ff37000003eb00e6979f00a0c2b30067
:1021300080cf500007003a00cfab970047047800eb
:10214000c7af9f00e8979f00bfac97008904e800e5
:10215000b9af9f00e0c2b3003fad97009a4f1000a7
:1021600021003a00830678000de0a0008a00e80014
:1021700064405000914f100004003200b1af9f0046
:102180008005eb00bba79f00100037004fa8970009
:10219000c0007800c0af9f00b1a79f003fa9970083
:1021a0000281e800b2af9f00130037003fa2970002
:1021b0006a20b9000000410003004000b0a79f0062
:1021c000bfaa97008502e800b5af9f003fab97001c
:1021d0001601fb0003fd2f0003004100e90f500032
:1021e000f2ff360004003700830678000dc0a0001f
:1021f0008003eb00b7a79f003fac9700b840780082
:10220000b8af9f00e1679f0070c6b30080cf500059
:102210003c00320017003c006440500080cf50006a
:102220008f0032000e003c007c40500080cf5000f8
:102230003300320006003c000104e0003a0732009f
:1022400000c0e90080cf5000aa003a002900370002
:1022500080c5b30080cf5000a6003a002d003700a3
:1022600050c6b30080cf5000230032001f003c0056
:10227000a700370000c7b30080cf50002500320010
:102280000a003c006440500080cf50001100320032
:102290006340400080cf50001c0032006640500078
:1022a00080cf500093003a009900370050c7b30028
:1022b00080cf5000950032006340400080cf500036
:1022c000150032006540500080cf500089003a0070
:1022d00013003700000028000d48a30001003a0059
:1022e0000001200080867600c3ff37000da0a0000b
:1022f000870037000d50a0000d80a000840037003b
:102300000d50a0000d90a000810037000d60a000ce
:102310007f0037000d50a0000d70a0007c0037003a
:10232000cfac970049007800c9af9f00e0a79f009d
:102330000000e00002003a00ab932100eba79f00f1
:102340000000eb00f0a79f00020037008100e800ca
:10235000f1a79f00ffa097006fa1970002804000a7
:102360001004e000f9ff3a00bfa197000300e0006d
:10237000040032007fa29700848f510001003100d9
:10238000f3a79f007fa097000005eb006f939700d5
:10239000800f530001003600000553004368de0043
:1023a000e104600019003a000904780009003700d0
:1023b000afa8970000022000e2060700e10f4000ee
:1023c00003003200afa397008703e800a7a79f0090
:1023d0000804e8008a0f5400f5ff3a000085eb007e
:1023e0000a003700efa097003100fb00e1a79f0033
:1023f000afa89700d3060700e10f400003003200aa
:102400002fa497000804e800a8a79f00ffa5970045
:102410000b00e900f0a79f00e10f4000f1ff3a0038
:102420000004eb000900e0000a003a00b80637009b
:10243000afa8970000022000c2060700e10f40008d
:10244000030032002fa197000201e800a2a79f001d
:102450000804e8008a0f5400f5ff3a00ac06370084
:10246000cfa9970043007800c3af9f00cf80de0064
:1024700001017800820178000203be000002be0064
:10248000e0a79f00f1a79f0082af9f0093af9f003e
:102490004822de00482cdd0004027400e4679f003f
:1024a0000d48a3000c0032000404e0000a003200d2
:1024b000e14f42000800320079fa2f0009804700fe
:1024c000044878004fcd97001a4098002b00200058
:1024d000fba79f0003003700f0679f00100020005b
:1024e000f0a79f0071fa2f0081804700e1a79f00ad
:1024f0009dff370062fa2f000f014100e2a79f0005
:1025000013002000f3a79f0097ff37000d0cb300c6
:102510000070200000826600820432000dc8a30013
:102520000200320064002000b4a79f000d48a30001
:10253000090032004fa897004005be004004be00cd
:10254000c0af9f00e89f9f00f99f9f008aa79f0050
:102550009ba79f00080037004fa997004200be00cc
:10256000c2af9f00ebf80700e09f9f00f19f9f0024
:1025700082a79f0093a79f006022b8006033b80035
:102580006f989700ff9897000fa197009fa1970061
:10259000fff807000000e0000a003d006f9a970076
:1025a000ff9a97000fa397009fa3970007f0a20040
:1025b000e49f9f00f59f9f0086a79f0097a79f001d
:1025c0003d00b3000000eb00d0979f006022b800f0
:1025d0006033b8006f989700ff9897000fa197009d
:1025e0009fa19700eff807000000e00034003200e0
:1025f0006f989700ff9897000fa197009fa19700f1
:10260000edf80700a5fa2f000581470015f907002e
:102610005f9097000000e9006300b900a20020006d
:10262000110009000200d8008000fd00d1979f0032
:102630000100e00002003d000100e900d0979f008a
:102640005f9497000840ea00f9fd07006f9a970031
:10265000ff9a97000fa397009fa3970038f80700f1
:10266000a09f9f00b19f9f00c29f9f00d39f9f008c
:102670006022b8000600200007ff2300c4f807000e
:102680000000e00002003d000800e9000b003700f8
:102690006022b80006002000470224002f9897000f
:1026a000bf9897004f999700df999700f0f80700bf
:1026b0000000e000020035000800e800d0979f000d
:1026c0005f939700d6a79f000600e00003003c0040
:1026d00010c0b300e0679f0002003700afcb970047
:1026e000e7679f000d0678000c10b20008003a0062
:1026f0000d98a300770232005fa49700e40f440016
:1027000003003500bfa49700890f5400f201350083
:102710003fa597000a00e000040032000d98a300d6
:10272000020032000a05e900baa79f00bfa5970082
:1027300020c1b300f28f550001003e006fc097002a
:10274000e0679f006022b8006033b8006f98970080
:10275000ff9897000fa197009fa1970091f807009d
:102760000000e0006d0032006f659700afc8970071
:102770000ac05000aefd07000002be000203be000a
:102780006f989700ff9897000fa197009fa197005f
:10279000bcf80700e09f9f00f19f9f0082a79f0069
:1027a00093a79f0011f907000004be0035f9070048
:1027b000e00f5400e08f5c0004003d006022b80090
:1027c00006002000071f240031f907000002be00a8
:1027d0000203be006f989700ff9897000fa1970023
:1027e0009fa19700a7f907006022b800060020000b
:1027f00007fe23009ef807000000e0000c003500f3
:102800006022b8000600200007fe23006f989700a2
:10281000ff9897000fa197009fa197001cf9070050
:10282000e09f9f00f19f9f0082a79f0093a79f00ba
:102830006f989700ff9897000fa197009fa19700ae
:10284000eaf807000002be006033b8000a00fb008f
:102850004304dd00a989210009004400d000900054
:1028600060019000f0019000400090000020e10025
:1028700001a8e10002b0e10003b8e1001000390056
:102880000400200005002a009699290097fb2300e8
:102890006f989700ff9897000fa197009fa197004e
:1028a000a7f70700e09f9f00f19f9f0082a79f006e
:1028b00093a79f005fa197000200e8001600370071
:1028c000090044005001be004000be000020e100ad
:1028d00001a8e10002b0e10003b8e1000f003100ff
:1028e0006022b80006002000470224006f9897007d
:1028f000ff9897000fa197009fa1970090f70700fe
:10290000e09f9f00f19f9f0082a79f0093a79f00d9
:10291000dfa197000300e900d0979f004968de001f
:102920006100600080cf9f000004e00040003200a2
:1029300000802000008666003d003a00bfa297009c
:10294000f48f52000200340046012000b6a79f0019
:102950006f989700ff9897000fa197009fa197008d
:10296000a2f807000004be000c0578008c05780072
:102970000b003700bfa397008703e900b7a79f00ac
:10298000a4002000050020006033b8000800be004d
:102990000a01be00b7f907000205be000004be0030
:1029a000e00f5400e08f5c00e00f5d00e08f5d0001
:1029b0000b003200a4002000050020006033b800a6
:1029c0000800be000a01be00b1f90700e00f500088
:1029d000e08f5800e00f5900e08f5900e5ff32000a
:1029e000ef6097000100fb003fa49700800f5400a8
:1029f0000f003d0008c050000dfd07000002be00a2
:102a00000203be006f989700ff9897000fa19700f0
:102a10009fa197001bf80700e09f9f00f19f9f0078
:102a200082a79f0093a79f00efc49700e9679f00cc
:102a30006f959700bfa597000b00550065065000e5
:102a40000b00e00002003a000db8a30001003200c4
:102a50006606500063806600010032000c06e90043
:102a60000d28a30026003200e18066000d18a300a7
:102a70000c003200d00220000100e00001003a000a
:102a80000080e900afa897002e050700e10f400085
:102a9000180032002fa097000000e800a0a79f00b8
:102aa000140037000100e00012003200afa89700c8
:102ab0000002200023050700e10f40000d00320056
:102ac000afa097008100e800a1a79f000900370090
:102ad000afa89700000320001a050700e10f40008f
:102ae000030032002fa197000201e800a2a79f0077
:102af0000c06e9000c00e000f5ff3c002e0037005a
:102b00000d38a3000a0032000b003700afa8970071
:102b1000000220000b050700e10f40000300320017
:102b2000afa197008301e800a3a79f000c06e9006e
:102b30000c00e000f5ff3c00e18066000d18a300ea
:102b400013003200d00220000100e00001003a0032
:102b50000080e900afa89700fa040700e10f4000e9
:102b6000150032002fa297000402e800a4a79f00de
:102b700011003700e8a79f00f9a79f008aaf9f00c8
:102b80009baf9f008042eb00e5679f00800037000d
:102b90000100e00008003200afa89700000220000a
:102ba000e8040700e10f4000030032002fa3970064
:102bb0000603e800a6a79f006f989700ff9897006c
:102bc0000fa197009fa1970008f807000004be001e
:102bd0006055b800ef6397000700fb004300dd007d
:102be000ae8921000e0040003002be002003be006e
:102bf0000800be000a01be001ef907000003b00075
:102c0000afa89700cf040700e10f40000300320097
:102c10002fa097000000e800a0a79f00ef6097009a
:102c20000100fb004300dd000e0040003002be004a
:102c30002003be000800be000a01be0014f9070010
:102c40000205be000004be00e0a79f00f1a79f00a0
:102c500082af9f0093af9f00bfa297000500e000e6
:102c600002003a000db8a30049003200afa8970057
:102c7000e0022000b3040700e10f4000030032002f
:102c80002fa397000603e800a6a79f00ef63970015
:102c90000700fb00bfa0970000805000809f9f00ae
:102ca000240037000fc997000204e000050032003d
:102cb000e00f5400e08f5c00e00f5d00e08f5d00ee
:102cc000acff32000000fb004300dd00ae892100b4
:102cd0000e0040003002be002003be000800be000f
:102ce0000a01be00e3f807000003b000afa8970098
:102cf00094040700e10f400003003200afa19700e9
:102d00008301e800a3a79f006f6297000400fb0007
:102d10004300dd000e0040003002be002003be0074
:102d20000800be000a01be00d9f807000205be0077
:102d30000004be00ef6297000540e900e0679f00d5
:102d4000e14f4000d7ff3a00e8a79f00f9a79f0096
:102d50008aaf9f009baf9f000004eb000900370083
:102d6000afa897000003200076040700e10f4000a1
:102d7000030032002fa397000603e800a6a79f00d8
:102d80000804e8008f9b9700870f5400f4ff3a0077
:102d90000d58a30009003200afa89700500420008e
:102da00068040700e10f40000c0032002fa49700d8
:102db0000804e800a8a79f0008003700afa8970004
:102dc000500620005f040700e10f400003003200be
:102dd000afa497008904e800a9a79f005f9097001f
:102de0000000e0000b003d000000ea00d0979f00cb
:102df000afa89700d002200052040700e10f400066
:102e00000c0032002fa597000a05e800aaa79f0032
:102e100008003700afa89700b0022000490407005f
:102e2000e10f400003003200afa597008b05e800da
:102e3000aba79f005f909700a80020001100090039
:102e40000800d8000003b000afa897003d040700b9
:102e5000e10f4000030032002fa097000000e800bf
:102e6000a0a79f00df909700110009008800d800fc
:102e70008000fd000003b000afa8970031040700f8
:102e8000e10f400003003200afa097008100e8008e
:102e9000a1a79f000d38a3001d0432000c00e00024
:102ea0001b0434000004eb00afa8970000022000d0
:102eb00024040700e10f4000030032002fa1970017
:102ec0000201e800a2a79f000804e8008c0f54004c
:102ed0000f043200f4ff3700dfa197000300e00089
:102ee00004003d003fa29700030052000000e900eb
:102ef000b0a79f006f989700ff9897000fa19700c9
:102f00009fa19700ecf807000205be000004be0078
:102f10000c427800a58921000b0037000400fb005b
:102f20004300dd00050040005001be004000be002f
:102f30000040e10001c8e10002d0e10003d8e10057
:102f4000030039000442e800f44f5200f3ff3a0056
:102f5000e4679f000400fb00bfa2970000875200b7
:102f6000f80f57000d003c000e4078005efb070094
:102f70000002be000203be006f989700ff98970002
:102f80000fa197009fa1970041f70700e09f9f00c6
:102f9000f19f9f0082a79f0093a79f000e4078009b
:102fa000a3fb0700d0af9f00e1af9f00f2af9f00ef
:102fb00083b79f00e00f5400e08f5c00e00f5d00de
:102fc000e08f5d00040035000800be000a01be006d
:102fd000eaf807001300370010002000010020006d
:102fe0006011b80008006000898060000a0161007b
:102ff0008b8161008b03d1000a83d3008982d300c7
:103000000882d30000007200818072000201730008
:1030100083817300d9f807000002be000203be00de
:103020001bf707000002be000203be006f98970066
:10303000ff9897000fa197009fa1970091f70700b5
:103040000002be000203be005fa89700efa8970031
:103050007fa997008fb19700b9f5070096f8070090
:103060000205be000004be000006eb0008003700a9
:10307000a4002000050020006033b8000800be0056
:103080000a01be00fbf707000205be000004be00f7
:103090000c035700b6a79f008e0f56001d0032008c
:1030a0000c06e800a4002000050020006033b800f2
:1030b0000800be000a01be00f5f70700e00f50004f
:1030c000e08f5800e00f5900e08f5900e8ff320010
:1030d00010003700bfa39700f88f53000d003c008d
:1030e0000740780000fb07000002be000203be009c
:1030f0006f989700ff9897000fa197009fa19700e6
:10310000e3f60700e09f9f00f19f9f0082a79f00ca
:1031100093a79f005fa49700e90f540015003c009f
:103120006022b8006033b8006f989700ff9897004e
:103130000fa197009fa197001af607000000e0007a
:10314000360032006f989700ff9897000fa1970004
:103150009fa1970058f80700e00f5000e08f58003b
:10316000e00f5900e08f59002c003a00e10f5400a5
:103170002a0034000400200005002e00b6e02200e2
:10318000170124002f989700bf9897004f99970038
:10319000df999700fef507000000e00003003d0006
:1031a000dfa4970073805400020037005fa59700ea
:1031b00072005500d0979f002f6897001cfb0700f6
:1031c000a09f9f00b19f9f00c29f9f00d39f9f0021
:1031d0000002be000203be006f989700ff989700a0
:1031e0000fa197009fa1970026f6070032f807006d
:1031f000e0a79f00f1a79f0082af9f0093af9f00c1
:103200006000b8006011b800d0b79f00e1b79f0020
:10321000f2b79f0083bf9f00340037006f9897007c
:10322000ff9897000fa197009fa1970022f8070031
:10323000e0a79f00f1a79f0082af9f0093af9f0080
:10324000e00f5000e08f5800e00f5900e08f590068
:103250000200350049f80700170037001000200071
:10326000010020006011b8006fa29700ffa2970034
:103270000fab97009fab9700040060008580600053
:1032800006016100878161008703d1000683d300b6
:103290008582d3000482d300000072008180720016
:1032a000020173008381730034f807000002be003e
:1032b0000203be0076f607000002be000203be0055
:1032c0006f989700ff9897000fa197009fa1970014
:1032d000ecf60700d0b79f00e1b79f00f2b79f0060
:1032e00083bf9f000000eb00d0979f0014c0b30085
:1032f000a58921000f0037000400fb004300dd001a
:10330000050340003600be002601be006fa49700f2
:10331000ffa497000fad97009fad97000040e1001c
:1033200001c8e10002d0e10003d8e1000300390048
:103330000442e800f44f5200efff3a00e4679f00b8
:103340000400fb00bfa4970000804400df909700ba
:10335000010040006f959700000655004b68de00a5
:1033600061006000004778000004e00002003a00bd
:103370000900e000010032000c06e90063806600ed
:10338000010032000c06e9000d28a30026003200df
:10339000e18066000d18a3000c003200d00220006e
:1033a0000100e00001003a000080e900afa89700aa
:1033b000e4020700e10f400018003200afa59700bb
:1033c0008b05e800aba79f00140037000100e00068
:1033d00012003200afa8970000022000d9020700b7
:1033e000e10f40000d0032002fa097000000e80020
:1033f000a0a79f0009003700afa897000003200096
:10340000d0020700e10f400003003200afa0970098
:103410008100e800a1a79f000c06e9000c00e00075
:10342000f5ff3c003f0037000d38a3000a003200d2
:103430000b003700afa8970000022000c102070070
:10344000e10f4000030032002fa197000201e800c5
:10345000a2a79f000c06e9000c00e000f5ff3c006d
:10346000e18066000d18a3000c003200d00220009d
:103470000100e00001003a000080e900afa89700d9
:10348000b0020700e10f400026003200afa1970014
:103490008301e800a3a79f00220037000100e0009d
:1034a00020003200afa8970000022000a50207000c
:1034b000e10f40001b0032002fa297000402e80039
:1034c000a4a79f00170037000000fb004300dd00a9
:1034d000a1892100010040003002be002003be008f
:1034e0006fa09700ffa097000fa997009fa99700d2
:1034f000e0f60700a4002000050020006033b800bb
:10350000e3f607000003b000afa897008d020700a4
:10351000e10f400003003200afa297008502e800ef
:10352000a5a79f006f6397000640e900e0679f0032
:10353000e14f4000e4ff3a000b003700afa89700ce
:10354000000320007f020700e10f4000030032006b
:10355000afa397008703e800a7a79f005f9097009d
:103560000000e900d0979f005f9097000000e00006
:10357000f2ff3c003fa49700f20f54000300340018
:1035800020c1b300e0679f0002003700efc497003e
:10359000e9679f00ef6097000100fb003fa59700df
:1035a00000005500f0979f000104e00002003a007f
:1035b0000e04e00008003200afa89700e0022000ef
:1035c00060020700e10f400003003200afa5970042
:1035d0008b05e800aba79f006f60970014fa070007
:1035e0000002be000203be005fb09700efb097007c
:1035f0007fb197008fb9970051f407002ef70700ad
:103600001e0037000000fb004300dd00ae892100f2
:103610000e0040003002be002003be000800be00c5
:103620000a01be0093f60700a40020000500200058
:103630006033b80096f607000003b000afa897000b
:1036400040020700e10f4000030032002fa0970066
:103650000000e800a0a79f00ef6097000100fb00ba
:103660004300dd000e0040003002be002003be001b
:103670000800be000a01be0085f607000205be0074
:103680000004be006f6197000240e900e0679f0000
:10369000e14f4000dbff3a00e8a79f00f9a79f0039
:1036a0008aaf9f009baf9f000004eb00090037002a
:1036b000afa897000003200022020700e10f40009e
:1036c00003003200afa197008301e800a3a79f0089
:1036d0000804e8007f929700840f5400f4ff3a003a
:1036e0000d38a3000a0232000c00e000080234008a
:1036f0000004eb00afa897000002200011020700b1
:10370000e10f400003003200afa297008502e800fd
:10371000a5a79f000804e8008c0f5400fc013200ac
:10372000f4ff37000d007800000cb20032003a00c0
:103730000d00e00009003d004fa897004005be00c5
:103740004004be00c0af9f00e8a79f00f9a79f00fc
:103750008aaf9f009baf9f00160037000d48a30063
:10376000090032004fa997004200be00c2af9f007f
:103770004f89de00cf91de000002be000203780018
:103780008203780007003700cfa997004300780034
:10379000c3af9f0000027800cfa2de0005037800cf
:1037a00086037800e4a79f00f5a79f0086af9f00df
:1037b00097af9f006fa49700ffa497000fad9700ed
:1037c0009fad9700e00f5400e08f5c00e00f5d00bc
:1037d000e08f5d0026003d003d00b3006000b800b2
:1037e0006011b80008045000898458000a05590087
:1037f0008b8559001a0037000d00e00005003d00e0
:103800004faa97004401be004400be00c4af9f0011
:10381000070037000d48a3000a003200cfaa970026
:103820004500be00c5af9f00040178008401780008
:10383000e0a79f00f1a79f0082af9f0093af9f007a
:103840000b0037004fab970046007800c6af9f00d3
:1038500000047800090020000a0020000b0020006e
:10386000e8a79f00f9a79f008aaf9f009baf9f002a
:10387000bfa497000900e0000b003a006fa097007a
:10388000ffa097000fa997009fa99700e00f500095
:10389000e08f5800e00f5900e08f590002003a0015
:1038a00011002000b1a79f000d0678000c0cb2009b
:1038b00000042000800f56003700320003003c0057
:1038c0000c00e000070032004b0037000008200029
:1038d000800f560018003200000c2000800f5600a8
:1038e00045003a0014c0b300a58921000f0037003d
:1038f0000400fb004300dd00050040005001be0055
:103900004000be006fa49700ffa497000fad970082
:103910009fad97000040e10001c8e10002d0e10046
:1039200003d8e100330039000442e800f44f5200ac
:10393000efff3a002f0037000001200001002000b7
:103940006011b80014c0b3006fa49700ffa49700e3
:103950000fad97009fad97000040e10001c8e10066
:1039600002d0e10003d8e100220039004900200024
:103970000000d0008180d2000281d2008381d20079
:103980008904e900faff3a000442e800f04f5200cf
:10399000edff3a00170037008000200001002000f2
:1039a0006011b80014c0b3006fa49700ffa4970083
:1039b0000fad97009fad97000040e10001c8e10006
:1039c00002d0e10003d8e1000a00390039002000ec
:1039d0000000d0008180d2000281d2008381d20019
:1039e0008904e900faff3a000442e800f54f52006a
:1039f000edff3a00e4679f006f6597000a00fb0047
:103a0000bfa597008b0f500002003d00eb679f00a1
:103a100004003700bfa09700808f500001003d00d8
:103a2000b0a79f006f9197000200e00004003200f1
:103a300063806600020032000201e900e2979f0005
:103a40000de8a3000b003200ef9197003fa2970012
:103a5000848f510003003c008002eb00e5979f003b
:103a6000040037006f939700bfa39700070353002c
:103a7000e6979f00408c20000080660001842000b3
:103a8000810f500006003a006f9497000800e00094
:103a9000110032000804e900e8979f000e0037008b
:103aa000008c20000080660001882000810f5000fb
:103ab00009003a00ef949700e28f540003003c00a5
:103ac0000005eb00ea979f0003003700ef95970091
:103ad0008b85e900eb979f00ef6097000100fb00ea
:103ae0000007eb006f919700800f51000100340038
:103af000000751000d28a3004b003200e180660052
:103b00000d18a3000c003200d00220000100e000dc
:103b100001003a000080e900afa897000901070002
:103b2000e10f400027003200afa197008301e800b9
:103b3000a3a79f00230037000100e0000900320026
:103b4000afa8970000022000fe000700e10f400030
:103b50001c0032002fa297000402e800a4a79f00d7
:103b600018003700008c20000080660001882000cb
:103b7000810f500013003a00afa897000003200007
:103b8000f0000700e10f400003003200afa29700f1
:103b90008502e800a5a79f00800520000d58a3001e
:103ba00001003a0080072000afa89700e500070059
:103bb000e10f4000030032002fa397000603e80046
:103bc000a6a79f000e00e0000d0032000004eb00ed
:103bd000afa8970000032000da000700e10f4000c3
:103be00003003200afa397008703e800a7a79f0058
:103bf0000804e8008e0f5400f5ff3a000007eb00c0
:103c00003fa49700c340dd0020892100808540004b
:103c10004240dd00640550006340b900909f9f0062
:103c200063045000a20037000e00e0000f003200d5
:103c3000688066000d003a0000047800afa8970085
:103c400000022000bf000700e10f40000300320027
:103c5000afa497008904e800a9a79f000804e80022
:103c60008e0f5400f5ff3a000007eb00e18066007c
:103c70000d18a3000c003200d00220000100e0006b
:103c800001003a000080e900afa89700ad000700ee
:103c9000e10f40000e0032002fa597000a05e80052
:103ca000aaa79f000a0037000100e00008003200c8
:103cb000afa8970000022000a2000700e10f40001b
:103cc00003003200afa597008b05e800aba79f006b
:103cd000008c20008080660000842000808f5000cf
:103ce00009003a00afa897000003200095000700e4
:103cf000e10f4000c2ff32002fa097000000e80053
:103d0000a0a79f00beff370000882000808f5000d2
:103d1000bbff3a00afa8970000032000890007000e
:103d2000e10f400003003200afa097008100e800df
:103d3000a1a79f00800520000d58a30001003a00b4
:103d400080072000afa897007e000700e10f400029
:103d5000abff32002fa197000201e800a2a79f004d
:103d6000a7ff370000042000800f5600310032000a
:103d700003003c000c00e000070032004000370068
:103d800000082000800f560012003200000c2000b6
:103d9000800f56003a003a003b02be002b03be00e3
:103da0006fa09700ffa097000fa997009fa9970009
:103db000b0f40700a4002000050020006033b80024
:103dc000b3f4070004c3b30004424000e4679f005b
:103dd0002b003700199421000d58a30001003a0070
:103de0002995210014002000050020006033b80050
:103df0000a0078000000e900050033000402d0004a
:103e00008582d2000683d2008783d200f9ff370073
:103e10006fa09700ffa097000fa997009fa9970098
:103e200094f407006f006000e9447800e9679f00a0
:103e30001300370014002000050020006033b80094
:103e4000880078008100e900050033000402d000fa
:103e50008582d2000683d2008783d200f9ff370023
:103e60006fa09700ffa097000fa997009fa9970048
:103e700080f40700674060000043b000e0679f00e7
:103e80006f6197000200fb00afa897002d000700ac
:103e9000e10f400003003200afa197008301e8006a
:103ea000a3a79f00e88555006405550063045400ee
:103eb000d0ff2f003fa2970000a0b9009f9a970063
:103ec0000080420063005000800f5400a5ff3a00bc
:103ed0000d38a3000e0032000e00e0000c0034008c
:103ee0000004eb00afa897000002200015000700b7
:103ef000e10f4000030032002fa397000603e80003
:103f0000a6a79f000804e8008e0f5400f5ff3a00b2
:103f1000bfab9700b7407800b7af9f00e1679f0045
:103f20000104e0002af83a002fa097004f0778001c
:103f30004f06be004f05be004f04be00ef04b100a7
:103f400000000600889fbe00000178000104780090
:103f5000b10090000118a3003d0032000198a300b9
:103f600003003a00180090000000e00038003a001a
:103f70000190a0003104980082047800f90fb2008b
:103f8000180090000000e00002003a0028009000b5
:103f9000000c7800ea8f540006003a0038009000c8
:103fa0000078a30003003a0088007800d0002000c9
:103fb000e4ff07009800900058009000808f5000a8
:103fc0000b0032000100e80010049800180078008f
:103fd00009587800000c780011c0b300c0be210061
:103fe00001487800ea8f54000600320019003700bb
:103ff00088007800094078001900070080047800e4
:1040000014003700380090000088a300110032002f
:1040100018019000a80090004800900082f107006d
:1040200098009000810f500004003200380090008a
:104030000003b300300498008084eb000000eb0024
:104040001004980028009000000c78000100370050
:104050008084eb00090078004f04be0000000600d9
:104060000200fa00889fbe00a0ff9f0001047800b4
:10407000b1009000810478000904b200020032000f
:104080000000fb00360037000118a30005003a00cd
:104090000103b30031049800190498000080eb007c
:1040a0002f003700580090000000e00006003a00a2
:1040b0004800900012002000e68057005af10700e7
:1040c0001904980024003700280090000000e00048
:1040d00008003a0080be210020049800000c7800ff
:1040e0002000200050049800100498000130a00027
:1040f0003104980018019000a8009000480090003a
:1041000049f1070028009000000c78000080eb00c7
:104110001004980018007800aff897000158780054
:10412000000c78002ff89700ea4f50000a003a0080
:10413000380090000088a3000700320018019000aa
:10414000a80090004800900037f10700190498007b
:10415000a8009000010c7800aff897000100fb0068
:0c4160004f04be000080fa0000000600c2
:020000040000fa
:020000040001f9
:0457f00033ff000083
:020000040000fa
:020000040001f9
:0457f400c0fc0000f5
:020000040000fa
:020000040001f9
:0457f8008f19000005
:020000040000fa
:020000040001f9
:0457fc00603f00000a
:020000040000fa
:10000800e4020000e4020000e4020000e402000050
:10001800e4020000e4020000e4020000e402000040
:10002800e4020000e4020000a6840000e4020000ec
:10003800e4020000e4020000e4020000e402000020
:10004800e4020000e4020000e4020000e402000010
:10005800e4020000e4020000e4020000e402000000
:10006800e4020000e4020000e4020000e4020000f0
:10007800e4020000e4020000e4020000e4020000e0
:10008800e4020000e4020000e4020000e4020000d0
:10009800e4020000e4020000e4020000e4020000c0
:1000a800e4020000e4020000e4020000e4020000b0
:1000b800e4020000e4020000e4020000e4020000a0
:1000c800e4020000e4020000e4020000e402000090
:1000d800e4020000e4020000e4020000e402000080
:1000e800e4020000e4020000e4020000e402000070
:1000f800e4020000e4020000e4020000e402000060
:10010800e4020000e4020000e4020000e40200004f
:10011800e4020000e4020000e4020000e40200003f
:10012800e4020000e4020000e4020000e40200002f
:10013800e4020000e4020000e4020000e40200001f
:10014800e4020000e4020000e4020000e40200000f
:10015800e4020000e4020000e4020000e4020000ff
:10016800e4020000e4020000e4020000e4020000ef
:10017800e4020000e402000066430000e40200001c
:10018800e4020000e4020000e4020000e4020000cf
:10019800e4020000e4020000e4020000e4020000bf
:1001a800e4020000e4020000e4020000e4020000af
:1001b800e4020000e4020000e4020000e40200009f
:1001c800e4020000e4020000e4020000e40200008f
:1001d800e4020000e4020000e4020000e40200007f
:1001e800e4020000e4020000e4020000e40200006f
:0801f800e4020000e402000033
:020000040000fa
:10020800e4020000e4020000e4020000e40200004e
:10021800e4020000e4020000e4020000e40200003e
:10022800e4020000e4020000a6840000e4020000ea
:10023800e4020000e4020000e4020000e40200001e
:10024800e4020000e4020000e4020000e40200000e
:10025800e4020000e4020000e4020000e4020000fe
:10026800e4020000e4020000e4020000e4020000ee
:10027800e4020000e4020000e4020000e4020000de
:10028800e4020000e4020000e4020000e4020000ce
:10029800e4020000e4020000e4020000e4020000be
:1002a800e4020000e4020000e4020000e4020000ae
:1002b800e4020000e4020000e4020000e40200009e
:1002c800e4020000e4020000e4020000e40200008e
:1002d800e4020000e4020000e4020000e40200007e
:1002e800e4020000e4020000e4020000e40200006e
:1002f800e4020000e4020000e4020000e40200005e
:10030800e4020000e4020000e4020000e40200004d
:10031800e4020000e4020000e4020000e40200003d
:10032800e4020000e4020000e4020000e40200002d
:10033800e4020000e4020000e4020000e40200001d
:10034800e4020000e4020000e4020000e40200000d
:10035800e4020000e4020000e4020000e4020000fd
:10036800e4020000e4020000e4020000e4020000ed
:10037800e4020000e402000066430000e40200001a
:10038800e4020000e4020000e4020000e4020000cd
:10039800e4020000e4020000e4020000e4020000bd
:1003a800e4020000e4020000e4020000e4020000ad
:1003b800e4020000e4020000e4020000e40200009d
:1003c800e4020000e4020000e4020000e40200008d
:1003d800e4020000e4020000e4020000e40200007d
:1003e800e4020000e4020000e4020000e40200006d
:0803f800e4020000e402000031
:020000040000fa
:10416c0070200000213d0000204e0000554c000046
:10417c004c000000696e000063720000656d000069
:10418c00656e0000745f00006d610000676e0000da
:10419c006974000075640000652000003c3d00005f
:1041ac00207000002d3e00006c6500006e000000c9
:1041bc0062610000642000007062000075660000ff
:1041cc00207400007970000065000000706200002f
:1041dc00756600005f66000072650000653a0000bd
:1041ec0020730000616e00006520000074790000ef
:1041fc00706500000070000062750000665f0000d2
:10420c0066720000656500003a200000702d000009
:10421c003e72000065660000203e00002030000069
:10422c000070000062750000665f0000726500009f
:10423c00616c00006c6f0000633a0000207300009a
:10424c00616e000065200000702d00003e740000bf
:10425c007970000065000000677200006f77000045
:10426c00203c0000206d0000617800005f750000ac
:10427c00313600005f740000006d0000656d0000b9
:10428c005f720000656100006c6c00006f630000e1
:10429c002067000069760000652000007120000096
:1042ac003d3d0000204e0000554c00004c0000002d
:1042bc0070620000756600005f6100006c6c0000ad
:1042cc006f6300003a20000062610000642000006f
:1042dc007062000075660000206c000061790000bf
:1042ec00657200000070000062750000665f0000df
:1042fc00616c00006c6f0000633a000020700000dd
:10430c006275000066200000702d00003e700000f9
:10431c00617900006c6f0000616400002070000087
:10432c00726f000070650000726c00007920000054
:10433c00616c0000696700006e650000640000009d
:10434c0063680000656300006b200000702d0000a6
:10435c003e700000617900006c6f00006164000029
:10436c00202b0000207000002d3e00006c6500002a
:10437c006e200000646f000065730000206e00006a
:10438c006f740000206f00007665000072660000fc
:10439c006c6f0000772000007062000075660000f2
:1043ac0000720000656d00005f6c0000656e00001f
:1043bc00203c0000206d0000617800005f7500005b
:1043cc00313600005f740000007000006275000060
:1043dc00665f0000616c00006c6f0000633a0000c7
:1043ec00207000006275000066200000712d000036
:1043fc003e700000617900006c6f00006164000089
:10440c0020700000726f000070650000726c00007c
:10441c0079200000616c0000696700006e65000087
:10442c006400000070620000756600005f610000af
:10443c006c6c00006f6300003a200000706200009a
:10444c00756600002d3e000070610000796c000064
:10445c006f61000064200000707200006f7000003b
:10446c00657200006c790000206100006c6900002e
:10447c00676e00006564000000700000627500004b
:10448c00665f0000616c00006c6f0000633a000016
:10449c0020650000727200006f6e0000656f0000f6
:1044ac007573000020740000797000006500000036
:1044bc0028680000202100003d2000004e5500001f
:1044cc004c4c00002920000026260000202800006b
:1044dc0074200000213d0000204e0000554c0000cf
:1044ec004c29000020280000707200006f6700004b
:1044fc00726100006d6d0000657200002076000096
:10450c00696f00006c61000074650000732000008e
:10451c004150000049290000007000002d3e0000b1
:10452c00746f0000745f00006c6500006e2000006a
:10453c003d3d0000207000002d3e00006c65000029
:10454c006e200000286f0000662000006c610000e7
:10455c00737400002070000062750000662000007b
:10456c00696e00002063000068610000696e000045
:10457c0029000000702d00003e6e000065780000e0
:10458c00742000003d3d0000204e0000554c000002
:10459c004c000000702d00003e7400006f74000091
:1045ac005f6c0000656e0000203d00003d200000a7
:1045bc00702d00003e6c0000656e0000202b00008a
:1045cc00207100002d3e0000746f0000745f00002d
:1045dc006c6500006e000000702d00003e74000041
:1045ec006f7400005f6c0000656e0000203d0000e1
:1045fc003d200000702d00003e6c0000656e000038
:10460c000070000062750000665f0000636f0000c0
:10461c00707900003a20000074610000726700009d
:10462c0065740000206e00006f74000020620000b2
:10463c0069670000206500006e6f00007567000060
:10464c0068200000746f0000206800006f6c000090
:10465c0064200000736f0000757200006365000039
:10466c00007000005f7400006f200000213d00000e
:10467c00204e0000554c00004c0000006f660000fe
:10468c0066730000657400005f7400006f2000000a
:10469c003c3d0000207000005f7400006f2d000096
:1046ac003e6c0000656e0000006f00006666000046
:1046bc0073650000745f0000667200006f6d00008f
:1046cc00203c00003d200000705f0000667200007e
:1046dc006f6d00002d3e00006c6500006e00000048
:1046ec0070620000756600005f6300006f70000070
:1046fc007928000029200000646f00006573000019
:10470c00206e00006f740000206100006c6c0000d3
:10471c006f77000020700000616300006b65000083
:10472c007420000071750000657500006573000051
:10473c00210a0000006e0000657400006275000024
:10474c00665f0000636f0000707900005f7000000e
:10475c006172000074690000616c00003a20000076
:10476c00696e0000766100006c6900006420000036
:10477c0062750000660000006e6500007462000047
:10478c00756600005f6300006f700000795f0000c9
:10479c007061000072740000696100006c3a0000e6
:1047ac00206900006e760000616c000069640000f6
:1047bc0020640000617400006170000074720000dd
:1047cc00000000000000000089110000122300000e
:1047dc009b32000024460000ad57000036650000f7
:1047ec00bf740000488c0000c19d00005aaf00004f
:1047fc00d3be00006cca0000e5db00007ee90000bf
:10480c00f7f800008110000008010000933300004d
:10481c001a220000a55600002c470000b7750000b6
:10482c003e640000c99c0000408d0000dbbf00000e
:10483c0052ae0000edda000064cb0000fff900007e
:10484c0076e80000022100008b300000100200000e
:10485c009913000026670000af7600003444000076
:10486c00bd5500004aad0000c3bc0000588e0000ce
:10487c00d19f00006eeb0000e7fa00007cc800003e
:10488c00f5d90000833100000a20000091120000cd
:10489c0018030000a77700002e660000b554000036
:1048ac003c450000cbbd000042ac0000d99e00008e
:1048bc00508f0000effb000066ea0000fdd80000fe
:1048cc0074c90000044200008d5300001661000002
:1048dc009f70000020040000a91500003227000082
:1048ec00bb3600004cce0000c5df00005eed0000c2
:1048fc00d7fc000068880000e19900007aab00004a
:10490c00f3ba0000855200000c43000097710000c0
:10491c001e600000a114000028050000b337000041
:10492c003a260000cdde000044cf0000dffd000081
:10493c0056ec0000e998000060890000fbbb000009
:10494c0072aa0000066300008f7200001440000081
:10495c009d51000022250000ab3400003006000001
:10496c00b91700004eef0000c7fe00005ccc000041
:10497c00d5dd00006aa90000e3b80000788a0000c9
:10498c00f19b0000877300000e6200009550000040
:10499c001c410000a33500002a240000b1160000c1
:1049ac0038070000cfff000046ee0000dddc000001
:1049bc0054cd0000ebb9000062a80000f99a000089
:1049cc00708b000008840000819500001aa700007d
:1049dc0093b600002cc20000a5d300003ee10000fd
:1049ec00b7f0000040080000c9190000522b00006d
:1049fc00db3a0000644e0000ed5f0000766d0000b5
:104a0c00ff7c000089940000008500009bb700002b
:104a1c0012a60000add2000024c30000bff10000bc
:104a2c0036e00000c118000048090000d33b00002c
:104a3c005a2a0000e55e00006c4f0000f77d000074
:104a4c007e6c00000aa5000083b4000018860000ec
:104a5c00919700002ee30000a7f200003cc000007c
:104a6c00b5d1000042290000cb380000500a0000ec
:104a7c00d91b0000666f0000ef7e0000744c000034
:104a8c00fd5d00008bb5000002a4000099960000ab
:104a9c0010870000aff3000026e20000bdd000003c
:104aac0034c10000c33900004a280000d11a0000ac
:104abc00580b0000e77f00006e6e0000f55c0000f4
:104acc007c4d00000cc6000085d700001ee50000e0
:104adc0097f4000028800000a19100003aa3000088
:104aec00b3b20000444a0000cd5b000056690000e0
:104afc00df780000600c0000e91d0000722f000040
:104b0c00fb3e00008dd6000004c700009ff500009e
:104b1c0016e40000a990000020810000bbb3000047
:104b2c0032a20000c55a00004c4b0000d77900009f
:104b3c005e680000e11c0000680d0000f33f0000ff
:104b4c007a2e00000ee7000087f600001cc400005f
:104b5c0095d500002aa10000a3b000003882000007
:104b6c00b1930000466b0000cf7a0000544800005f
:104b7c00dd590000622d0000eb3c0000700e0000bf
:104b8c00f91f00008ff7000006e600009dd400001e
:104b9c0014c50000abb1000022a00000b9920000c7
:104bac0030830000c77b00004e6a0000d55800001f
:104bbc005c490000e33d00006a2c0000f11e00007f
:104bcc00780f000000910000e372000007960000cf
:104bdc00e47500000e9f0000ed7c000009980000b9
:104bec00ea7b00001c8d0000ff6e00001b8a000099
:104bfc00f869000012830000f160000015840000c9
:104c0c00f667000038a90000db4a00003fae000048
:104c1c00dc4d000036a70000d544000031a0000098
:104c2c00d243000024b50000c756000023b2000098
:104c3c00c05100002abb0000c95800002dbc000068
:104c4c00ce5f000070e100009302000077e60000e8
:104c5c00940500007eef00009d0c000079e8000038
:104c6c009a0b00006cfd00008f1e00006bfa000018
:104c7c008819000062f300008110000065f4000048
:104c8c008617000048d90000ab3a00004fde000048
:104c9c00ac3d000046d70000a534000041d0000018
:104cac00a233000054c50000b726000053c2000018
:104cbc00b02100005acb0000b92800005dcc0000e8
:104ccc00be2f0000e071000003920000e7760000a8
:104cdc0004950000ee7f00000d9c0000e9780000b8
:104cec000a9b0000fc6d00001f8e0000fb6a000098
:104cfc0018890000f263000011800000f5640000c8
:104d0c0016870000d84900003baa0000df4e0000c7
:104d1c003cad0000d647000035a40000d140000097
:104d2c0032a30000c455000027b60000c352000097
:104d3c0020b10000ca5b000029b80000cd5c000067
:104d4c002ebf00009001000073e2000097060000e7
:104d5c0074e500009e0f00007dec00009908000037
:104d6c007aeb00008c1d00006ffe00008b1a000017
:104d7c0068f900008213000061f000008514000047
:104d8c0066f70000a83900004bda0000af3e0000c7
:104d9c004cdd0000a637000045d40000a130000017
:104dac0042d30000b425000057c60000b322000017
:104dbc0050c10000ba2b000059c80000bd2c0000e7
:104dcc005ecf0000476500006e6500007269000050
:104ddc0063200000646500006d6f0000206400001b
:104dec0065760000696300006520000061740000b6
:104dfc00746100006368000065640000202d0000f1
:104e0c00207000006f6c00006c650000642c0000ca
:104e1c0020640000657600006963000065410000b5
:104e2c006464000072650000737300003d000000b4
:104e3c000d0a0000006d0000656d0000206d000083
:104e4c00676d000074200000696e0000697400003a
:104e5c00696100006c6900007a650000640d000057
:104e6c000a000000004800004349000020690000cf
:104e7c006e69000074690000616c0000697a0000c2
:104e8c0061740000696f00006e2000006661000014
:104e9c00696c000065640000210d00000a00000030
:104eac00426c000075650000746f00006f740000a8
:104ebc0068200000696e00006974000069610000e0
:104ecc006c6900007a650000642e00000d0a000079
:104edc0000410000707000006c690000636100000c
:104eec00746900006f6e0000732000007374000082
:104efc006172000074650000642e00000d0a000051
:104f0c0000470000656e00006572000069630000d8
:104f1c0020640000656d00006f20000064650000d7
:104f2c007669000063650000206100007474000065
:104f3c006163000068650000642000002d20000003
:104f4c0065760000656e0000742c00002064000083
:104f5c006576000069630000654100006464000030
:104f6c0072650000737300003d000000476500008f
:104f7c006e6500007269000063200000646500002b
:104f8c006d6f00002064000065760000696300000e
:104f9c006520000064650000746100006368000017
:104fac0065640000202d000020650000766500007f
:104fbc006e7400000d0a0000000d00000a2a0000ab
:104fcc002a2a00002a2a0000205500005342000023
:104fdc0020450000727200006f720000202d00004e
:104fec0020680000756200007320000061720000f0
:104ffc00652000006e6f00007420000073750000c7
:10500c00707000006f720000746500006420000076
:10501c002a2a00002a2a00002a0d00000a0000009b
:10502c000d0a00002a2a00002a2a00002a2000006b
:10503c00555300004220000045720000726f0000c2
:10504c00722000002d2000006465000076690000cd
:10505c006365000020690000732000006e6f000083
:10506c007420000073750000707000006f720000f7
:10507c0074650000642000002a2a00002a2a00001f
:10508c002a0d00000a0000000d0a00002a2a000068
:10509c002a2a00002a20000055530000422000005c
:1050ac0045720000726f0000722000002d2000007d
:1050bc00636100006e6e00006f74000020650000dc
:1050cc006e7500006d650000726100007465000073
:1050dc002064000065760000696300006520000014
:1050ec002a2a00002a2a00002a0d00000a000000cb
:1050fc000d0a00002a2a00002a2a00002a2000009b
:10510c00555300004220000045720000726f0000f1
:10511c00722000002d200000636c00006965000007
:10512c006e74000020640000726900007665000057
:10513c0072200000696e0000697400006961000053
:10514c006c6900007a610000746900006f6e0000e9
:10515c0020650000727200006f720000202a0000af
:10516c002a2a00002a2a00000d0a0000000d000067
:10517c000a2a00002a2a00002a2a000020550000d2
:10518c005342000020450000727200006f72000054
:10519c00202d0000206f000075740000206f0000af
:1051ac00662000006865000061700000206d000042
:1051bc00656d00006f720000792000002a2a000043
:1051cc002a2a00002a0d00000a0000000d0a000027
:1051dc002a2a00002a2a00002a2000005553000029
:1051ec004220000045720000726f00007220000027
:1051fc002d200000756e00007370000065630000c8
:10520c006966000069650000642000002a2a00001d
:10521c002a2a00002a0d00000a0000000d0a0000d6
:10522c000d0a0000436f0000756c00006420000044
:10523c006e6f000074200000696e0000697400003d
:10524c00696100006c6900007a650000205500005f
:10525c00534200002043000075730000746f00007f
:10526c006d200000446500006d6f000020410000bf
:10527c0070700000202d0000207300007973000076
:10528c00746500006d2e00002020000048610000b5
:10529c006c740000696e0000672e00000d0a00009f
:1052ac000d0a0000000d00000a0d00000a2a000083
:1052bc002a2a00002a2a0000205500005342000030
:1052cc002043000075730000746f00006d20000017
:1052dc00446500006d6f00002041000070700000fc
:1052ec00204900006e69000074690000616c0000c8
:1052fc00697a000065640000202a00002a2a000058
:10530c002a2a00000d0a00000d0a0000000d000002
:10531c000a0d00000a4300006f7500006c64000069
:10532c00206e00006f740000206900006e690000a0
:10533c0074690000616c0000697a0000652000004f
:10534c0055530000422000004375000073740000a8
:10535c006f6d000020440000656d00006f200000a0
:10536c0041700000702000002d20000055530000fb
:10537c00422e000020200000486100006c740000e8
:10538c00696e0000672e00000d0a00000d0a000077
:10539c00000000006c32000063610000705f0000d0
:1053ac00707200006f63000065730000735f000093
:1053bc0073690000673a0000206300006f6e000004
:1053cc006e20000072730000702c00002061000041
:1053dc0063740000697600006520000070630000b3
:1053ec00622d00003e7300007461000074650000c3
:1053fc00203d00003d200000573400005f4c0000b1
:10540c0032430000415000005f4300004f4e00004b
:10541c004e450000435400005f5200005350000002
:10542c000a0000006c32000063610000705f000035
:10543c00707200006f63000065730000735f000002
:10544c0073690000673a0000206300006f6e000073
:10545c006e20000072730000702000007375000055
:10546c006363000065730000732c00002070000063
:10547c00636200002d3e000073630000696400004d
:10548c00203d00003d200000282800007531000060
:10549c00365f0000742000002a290000702d0000e7
:1054ac003e700000617900006c6f000061640000c8
:1054bc00295b0000315d00000a0000006c32000026
:1054cc0063610000705f0000707200006f63000089
:1054dc0065730000735f000073690000673a000099
:1054ec0020630000666700002072000073700000eb
:1054fc002c200000616300007469000076650000d8
:10550c0020700000636200002d3e000073740000e8
:10551c0061740000652000003d3d0000204c00003f
:10552c0032430000415000005f4300004f4e00002a
:10553c0046490000470a0000006c0000326300007e
:10554c00615f0000636f00006e6e00006563000019
:10555c00745f000072650000713a0000206f00005b
:10556c0075740000206f00006620000043490000a5
:10557c00447300000a0000000c000000c200000090
:10558c0010000000100000006d6500006d70000040
:10559c005f6d0000616c00006c6f0000633a0000ee
:1055ac002074000079700000652000003c20000091
:1055bc004d4500004d5000005f4d0000415800006b
:1055cc00006d0000656d0000705f00006d610000f3
:1055dc006c6c00006f6300003a2000006d650000e9
:1055ec006d70000020700000726f0000706500008c
:1055fc00726c000079200000616c0000696700008b
:10560c006e650000640000006d6500006d700000a8
:10561c005f66000072650000653a0000206d0000b6
:10562c00656d000020700000726f00007065000056
:10563c00726c000079200000616c0000696700004a
:10564c006e650000640000003508000009000000d1
:10565c00000a0000000000000000000035160000e9
:10566c000900000001350000111c000000000000c2
:10567c00110100000000000010000000800000007c
:10568c00008000005f9b000034fb0000351100001f
:10569c0009000000043500000c350000031900005f
:1056ac00010000003505000019000000030800008f
:1056bc00013500000809000000050000350300005a
:1056cc0019100000023100003233000034000000d9
:1056dc003503000009000000043500000319000028
:1056ec001102000050490000433200003446000013
:1056fc002d2d00002d2d00002d2d00000000000090
:10570c001e0000000a000000100000003200000023
:10571c000a0000000a000000100000000e0000004b
:10572c000a000000280000000a0000000000000031
:10573c000000000001000000020000000100000059
:10574c000300000002000000020000000400000042
:10575c000100000001000000040000000200000035
:10576c000000000000000000303100003233000067
:10577c003435000036370000383900004142000053
:08578c00434400004546000003
:020000040000fa
:10579400004178000004e00002003a0011dc8000bf
:1057a4001300370003dc80000300e0000f00320028
:1057b400230090000000e00009003200a0009000e7
:1057c4000100e0000600320021589000804f510093
:1057d40007003200910078000100e000faff3a006f
:1057e400930178000300e000f1ff3a008000eb0031
:1057f400010078000000060081417800620020006a
:1058040091b72100914f10000d003a000340780039
:10581400dfff070080007800420120000000e00064
:1058240007003200204090000054a100a0409800de
:10583400214090000064a100a04098000001eb000a
:10584400020078000000060040b821001080fb0030
:105854004600de00610060000000060050dc8000ad
:1058640001f0200001006000120320001600320045
:1058740050dc800001f020000100600001402000a5
:10588400810f500007003a0050dc8000000fb20086
:10589400a2032000f00f50000b003200020320008e
:1058a4000900370050dc800001f020000100600096
:1058b4002203200001502000810f500002003a0012
:1058c400a0b721001081fb00020078000000060050
:1058d4000004e00017003a0004dc80000400e0004b
:1058e4001b003200940190000300e0000d00320020
:1058f400a30090000100e0000700320072cfb30063
:105904003140900002406000b0409800910078005f
:105914000100e000faff3a00930178000300e00080
:10592400f3ff3a00140278000400e000080032009b
:10593400ecff370096ff0700800078000000e000cd
:1059440003003200304090000034a100b0409800c1
:1059540000000600881f78000004780020409000b2
:105964000054a10020449800284090000064a10045
:1059740020449800284090000074a100204498001e
:10598400384090000004a100304498002840900062
:1059940005ceb300054060002044980038409000d4
:1059a4000044a10030449800330c98006033b800e0
:1059b400060c9800170c98006123b8005604980050
:1059c400670498000000eb00700c9800210c98000c
:1059d400720498000400e00003003a0000c1b30020
:1059e400005c98000200370000c3b300005c98001c
:1059f400384090000014a100304498004f0478000f
:105a040000000600a04290000554a1002540980023
:105a1400a04290000564a10025409800a042900097
:105a24000574a10025409800b04290000504a1002f
:105a340035409800a042900006ceb30086c26200b2
:105a440025409800b04290000544a10035409800dc
:105a5400330898006033b8000608980017089800c7
:105a64000500200054009800650098008001eb00b8
